:020000040800F2
:10000000B00C0020E9010008E50100087F040008A9
:10001000E5010008E5010008E50100080000000016
:10002000000000000000000000000000E5010008E2
:10003000E501000800000000E5010008E5010008F6
:10004000E5010008E5010008E5010008E5010008F8
:10005000E5010008E5010008E5010008E5010008E8
:10006000E5010008E5010008E5010008E5010008D8
:10007000E5010008E5010008E5010008E5010008C8
:10008000E5010008E5010008E5010008E5010008B8
:10009000E5010008E5010008E5010008E5010008A8
:1000A000E5010008E5010008E5010008E501000898
:1000B000E5010008E5010008E5010008E501000888
:1000C000E5010008E5010008E5010008E501000878
:1000D000E5010008E5010008E5010008E501000868
:1000E000E5010008E5010008E5010008E501000858
:1000F000E5010008E5010008E5010008E501000848
:10010000E5010008E5010008E5010008E501000837
:10011000E5010008E5010008E5010008E501000827
:10012000E5010008E5010008E5010008E501000817
:10013000E5010008E5010008E5010008E501000807
:10014000E5010008E5010008E5010008E5010008F7
:10015000E5010008E5010008E5010008E5010008E7
:10016000E5010008E5010008E5010008E5010008D7
:10017000E5010008E5010008E5010008E5010008C7
:10018000E5010008E501000810B5054C237833B9F6
:10019000044B13B10448AFF300800123237010BD5A
:1001A000580400200000000074200008084B10B51F
:1001B0001BB108480849AFF300800848036803B939
:1001C00010BD074B002BFBD0BDE81040184700BF07
:1001D00000000000742000085C040020540400208B
:1001E00000000000FEE700BF08B50C480C4B984229
:1001F00007D2C2431A4422F003020432094901F033
:100200009DFD094809494FF000028842B8BF40F8F7
:10021000042BFADBBDE8084000F00AB8000000201B
:10022000580400205C21000858040020AC04002081
:1002300000B583B000F02EF900F030F8012000F096
:1002400047F800F04DF828B900F0C4FA002003B0D8
:100250005DF804FB0A234FF4F07200934FF4800022
:100260001921022300F056F8012000F065F80A4A2F
:1002700013689B01FCD5022000F064F8002000F018
:100280006BF84FF4A05000F071F84FF4805000F07C
:1002900077F800F079F9D7E7003802400A4B0B48AD
:1002A0001A68002142F001021A6099601A6822F06F
:1002B000847222F480321A6058601A6822F4802214
:1002C0001A60D960704700BF003802401030002427
:1002D000024B00221A701870704700BF02380240AB
:1002E00082B000230A4A019302E0B3F5A06F08D060
:1002F000136813F4003F019B03F101030193019B79
:10030000F3D0034B1868C0F3404002B0704700BF01
:100310000038024030B4029C064D40EA04600143BC
:100320005B08013B41EA821242EA0340686030BC4C
:10033000704700BF00380240014B1860704700BF93
:1003400060004742034A936823F003031843906018
:10035000704700BF00380240034A936823F0F0035F
:1003600018439060704700BF00380240034A93680A
:1003700023F4E05318439060704700BF00380240F8
:10038000034A936823F4604343EAC00090607047D7
:1003900000380240044A136B19B923EA00001063C5
:1003A00070471843106370470038024000222DE95F
:1003B000F0431346D1F800E001274FF0030C04E0AE
:1003C0000133102B02F1020228D007FA03F404EAE9
:1003D0000E05A542F4D1D0F800800E790CFA02F493
:1003E000E44304EA0808C0F80080D0F8008006FA68
:1003F00002F9013E49EA0808012EC0F800800FD931
:10040000C568CE792C40C460C56806FA02F4013391
:100410002C43102BC46002F10202D6D1BDE8F08358
:10042000D0F8089091F805808E7904EA0909C0F89F
:100430000890D0F8089008FA02F848EA0908C0F8CD
:100440000880D0F8048028EA05054560D0F80480CB
:1004500006FA03F5ADB245EA08054560D0E700BFEE
:100460000AB9418370470183704700BFABBE01E00A
:1004700000207047002A00D01060012070470698C5
:100480000188034A914202D1043006907047FEE78A
:10049000ABBE0000364B37481A68002142F001021B
:1004A0001A6099601A6822F0847222F480321A600D
:1004B00058601A6882B022F480221A60D9600091D4
:1004C00001911A6842F480321A601A4603E0009BD8
:1004D000B3F5A06F09D0136803F400330193009BB8
:1004E00001330093019B002BF1D0214B1B6813F4C7
:1004F000003318BF01230193019B012B05D01E4B34
:100500004FF000629A6002B07047194B1B491A6C99
:100510001B4842F080521A640A6842F480420A6022
:100520009A689A609A6842F400429A609A6842F423
:10053000A0529A6058601A6842F080721A601A4697
:1005400011680B4B8901FBD50E4A40F20561116021
:100550009A6822F003029A609A6842F002029A6056
:100560001A46936803F00C03082BFAD1C7E700BFC3
:10057000003802401030002400ED00E00070004020
:1005800019544007003C02401848836803F00C03EC
:10059000042B28D0082B09D0154B144A1549926812
:1005A000C2F303128A5CD3400B6170474368416811
:1005B00013F4800F436818BF0F4801F03F020CBFCF
:1005C0000B49B0FBF2F1C3F3881308BFB1FBF2F1A2
:1005D00001FB03F2054B5B68C3F3014301335B008E
:1005E000B2FBF3F3D9E7044BD7E700BF0038024072
:1005F0000024F4000000002040787D01FEE700BFE9
:10060000704700BF2DE9F043414D2C6885B014B10F
:1006100005B0BDE8F0834FF001083E4F8DF804802F
:1006200003234FF0F80E022241464FF0040906461C
:100630004046CDF800E08DF805308DF80D308DF88E
:1006400007208DF80F208DF806408DF80C408DF8AE
:100650000E40CDF80890FFF79DFE38466946FFF73B
:10066000A5FE384602A9FFF7A1FE384642467C6146
:100670001021FFF7F5FE384642460821FFF7F0FE4D
:100680003F21102205EB090001F0F2FB42463846FB
:1006900010216C61AC61EC612C62FFF7E1FE2A79FC
:1006A0004F46C2F340124FF060081A488021FFF70E
:1006B000D7FE184820210122FFF7D2FE154820213D
:1006C0000022FFF7CDFE08F1FF3339B20122013FCE
:1006D00013F0FF0805EB040002FA01F2BFB209D0E3
:1006E00003791A400A413B04D2B2DED50134E4B2A8
:1006F0000527DAE7074840210122FFF7B1FE42460D
:1007000004484021FFF7ACFE2E6005B0BDE8F08341
:100710007404002000000240034BC1F10F0103EB01
:1007200041039A82704700BF74040020F8B5274D3A
:10073000274800221021FFF793FEAA8AC027C2F3A0
:10074000C0220A24002622488021FFF789FE204883
:1007500020210122FFF784FE013F202100221C48B6
:10076000FFF77EFEBFB223B20122013C05EB46013A
:100770009A40A4B24FB1898A0A401A412304D2B2E6
:10078000E1D50136F6B20B24DDE71148082101223C
:10079000FFF766FE3A460E480821FFF761FE0C4857
:1007A00040210122FFF75CFE3A4609484021FFF74D
:1007B00057FE074820210122FFF752FE3A4604481F
:1007C0002021BDE8F840FFF74BBE00BF74040020B5
:1007D000000002402DE9F04F93B04FF0000A0023D3
:1007E0009F4806938DF81C30CDF80CA0CDF810A0D2
:1007F000CDF814A0CDF820A0CDF824A0CDF828A0E5
:10080000CDF834A0CDF838A0CDF83CA0FFF7FAFE23
:100810000122032392480B928DF83030FFF7F2FE4D
:10082000022206238E4810928DF84430FFF7EAFE2C
:100830008C4FDFF83482DFF8349203AD0DF1140BE6
:1008400012AE2C4601F062FB87FB0023A3EBE073A2
:1008500003EB4303C01A012800F09B80022862D0FA
:1008600048B31434B4420BF1140BEBD128682C7C40
:1008700000F088FA214682B27948FFF74DFF686898
:1008800000F080FA04F1010B5FFA8BFB82B259464B
:100890007348FFF741FFA86800F074FA0234E4B22D
:1008A00082B2214614356E48FFF736FFAE42DDD1E5
:1008B000FFF73CFFC1E701F029FB88FB0023C217CB
:1008C000C2EB630303EB8303C31A012B40F397804E
:1008D00001F01CFB87FB0023A3EBE07303EB430356
:1008E000C01A00F085F95BF8081C00F0CDF84BF851
:1008F000080C019001F00AFB80FB0923C118C31703
:10090000C3EBE113C3EB0323C01A7F3000F070F98F
:10091000DDF804C00146604600F020FA0028A0D0AF
:100920004BF808AC9DE701F0F1FA88FB0023C217F1
:10093000C2EB630303EB8303C31A012B70DD01F0E9
:10094000E5FA87FB0023A3EBE07303EB4303C01A34
:1009500000F04EF9A16800F097F8A060019001F056
:10096000D5FA80FB0923C118C317C3EBE113C3EB0E
:100970000323C01A7F3000F03BF9DDF804C00146C4
:10098000604600F0EBF900283FF46BAFC4F808A014
:1009900067E701F0BBFA88FB0023C217C2EB6303D1
:1009A00003EB8303C31A012B4ADD01F0AFFA87FB87
:1009B0000023A3EBE07303EB4303C01A00F018F924
:1009C000616800F061F86060019001F09FFA80FBBF
:1009D0000923C118C317C3EBE113C3EB0323C01AE8
:1009E0007F3000F005F9DDF804C00146604600F0F4
:1009F000B5F900283FF435AFC4F804A031E701F0A1
:100A000085FA87FB0023A3EBE07303EB4303C01AD3
:100A100000F0EEF801465BF8080C00F033F866E7EA
:100A200001F074FA87FB0023A3EBE07303EB4303AD
:100A3000C01A00F0DDF80146A06800F023F88CE74A
:100A400001F064FA87FB0023A3EBE07303EB43039D
:100A5000C01A00F0CDF80146606800F013F8B2E764
:100A6000A8040020565555556766666681808080CB
:100A70000148FFF7C5BD00BFA804002080F000407A
:100A800002E000BF81F0004142001FBF5FEA410366
:100A900092EA030F7FEA226C7FEA236C6AD04FEA66
:100AA0001262D2EB1363C1BFD218414048404140AB
:100AB000B8BF5B42192B88BF704710F0004F40F45D
:100AC000000020F07F4018BF404211F0004F41F479
:100AD000000121F07F4118BF494292EA030F3FD045
:100AE000A2F1010241FA03FC10EB0C00C3F1200358
:100AF00001FA03F100F0004302D5494260EB4000E7
:100B0000B0F5000F13D3B0F1807F06D340084FEA51
:100B1000310102F10102FE2A51D2B1F1004F40EB46
:100B2000C25008BF20F0010040EA030070474900AE
:100B300040EB000010F4000FA2F10102EDD1B0FA79
:100B400080FCACF1080CB2EB0C0200FA0CF0AABF6E
:100B500000EBC25052421843BCBFD040184370470C
:100B600092F0000F81F4000106BF80F40000013212
:100B7000013BB5E74FEA41037FEA226C18BF7FEAE9
:100B8000236C21D092EA030F04D092F0000F08BF2B
:100B90000846704790EA010F1CBF0020704712F012
:100BA0007F4F04D1400028BF40F00040704712F151
:100BB00000723CBF00F50000704700F0004343F0B6
:100BC000FE4040F4000070477FEA226216BF0846EC
:100BD0007FEA23630146420206BF5FEA412390EAAF
:100BE000010F40F4800070474FF0000304E000BFA5
:100BF00010F0004348BF40425FEA000C08BF704756
:100C000043F0964301464FF000001CE050EA010219
:100C100008BF70474FF000030AE000BF50EA01022E
:100C200008BF704711F0004302D5404261EB41011B
:100C30005FEA010C02BF84460146002043F0B64340
:100C400008BFA3F18053A3F50003BCFA8CF2083A65
:100C5000A3EBC25310DB01FA02FC634400FA02FC6E
:100C6000C2F12002BCF1004F20FA02F243EB020075
:100C700008BF20F00100704702F1200201FA02FCD7
:100C8000C2F1200250EA4C0021FA02F243EB0200CA
:100C900008BF20EADC7070474FF0FF3C06E000BF61
:100CA0004FF0010C02E000BF4FF0010C4DF804CDF5
:100CB0004FEA40024FEA41037FEA226C18BF7FEA05
:100CC000236C11D001B052EA530C18BF90EA010F07
:100CD00058BFB2EB030088BFC81738BF6FEAE17096
:100CE00018BF40F0010070477FEA226C02D15FEA32
:100CF000402C05D17FEA236CE4D15FEA412CE1D09E
:100D00005DF8040B704700BF844608466146FFE764
:100D10000FB5FFF7C9FF002848BF10F1000F0FBD46
:100D20004DF808EDFFF7F4FF0CBF012000205DF83F
:100D300008FB00BF4DF808EDFFF7EAFF34BF0120C4
:100D400000205DF808FB00BF4DF808EDFFF7E0FF5D
:100D500094BF012000205DF808FB00BF4DF808EDAE
:100D6000FFF7D2FF94BF012000205DF808FB00BF11
:100D70004DF808EDFFF7C8FF34BF012000205DF8F3
:100D800008FB00BF42000ED2B2F1FE4F0BD34FF072
:100D90009E03B3EB126209D44FEA002343F00043F1
:100DA00023FA02F070474FF00000704712F1610F14
:100DB00001D1420202D14FF0FF3070474FF00000E6
:100DC000704700BF03685A004CBF43F0004323F054
:100DD00000431844704700BF2DE9F04F83B099B32A
:100DE0004B1E1746054601939846002606EB08045D
:100DF00004EBD47464104FEAC40A05EB0A0B58469E
:100E0000FFF7E0FF019B8146A3420AF10800284456
:100E10000ED0FFF7D7FFB94500F1FF3004D9B44237
:100E20000CD004F1FF38E1E7B84203D2661CDDE7DD
:100E3000B945F4D8584603B0BDE8F08F4FF0000B29
:100E4000584603B0BDE8F08F8B46584603B0BDE866
:100E5000F08F00BF012807D0022807D0044B0028DC
:100E60000CBF184600207047024870470248704780
:100E700061150008651500086915000830B5244B98
:100E800083B004468D1E7BB3284601A9AFF30080D2
:100E900020B301992A46FFF79FFF0546F0B1FFF7FF
:100EA00091FF6B68A064012B12D0002B05F10400A8
:100EB00020DBFFF787FF0023E06423650368002B36
:100EC0001CDBFFF77FFF00232061184603B030BD15
:100ED000002323610523184603B030BD002323619E
:100EE0000923184603B030BD0A490B48091AC91036
:100EF0000191CFE70123E0642365DFE7C3F30360DB
:100F0000FFF7A8FF002820610CBF09230023DCE7BE
:100F1000000000005C210008742000080368DA0764
:100F200010B5044606D49B0700F1480009D500F02F
:100F300085FC2368590709D51A070ED5DB0613D59A
:100F400010BD00F073FC23685907F5D404F1D000FC
:100F500000F07CFC23681A07F0D404F5A87000F0B8
:100F60007DFC2368DB06EBD404F5E870BDE8104097
:100F700000F0B8BC03680BB11844704718467047BE
:100F800009207047704700BF70B504460D4608E061
:100F90002B6C63610120236921462A469847082863
:100FA00008D12046296CFFF769FF06460028EFD0DC
:100FB000FFF724FB0728FBD13046296CFFF7E2FF3F
:100FC000281D00F027FC00BF2DE9F0470C1D064648
:100FD00017460FCCADF5727D03AD0FC50FCC0FC515
:100FE0000FCC0FC594E80F0002AC4FF0000ED6F8FE
:100FF0000C80D6F8189085E80F003046216CC4F8B4
:1010000000E0FFF73BFF002F05460CBF09270A272A
:101010007DB1A36B47F010018DE8100201206364DD
:1010200032463346C04778BB28460DF5727DBDE891
:10103000F087236C736121464FF4F0727AA800F0B8
:101040007DFE336931467AAA38469847889B8246A6
:101050008DE8100239466364012032463346C047AA
:1010600090B920467AA94FF4F07200F067FEBAF109
:10107000080F06D13046216CFFF700FF092705460F
:10108000C6E7BAF1070F04D009200DF5727DBDE85F
:10109000F0872846216CFFF775FF03A800F0BAFB24
:1010A000406C7047F0B5CB6B0B640E1D0F460446C9
:1010B0000FCEF9B001AD0FC50FCE0FC50FCE0FC5C6
:1010C00096E80F004FF0FF3685E80F00009606E027
:1010D000236921466A4698470828054608D12046D4
:1010E0001099FFF7CBFE0028F2D0092079B0F0BDAF
:1010F0006846FFF713FF062DF7D120463946FFF764
:1011000043FF00BF30B4DD6BC160826119461D64CE
:10111000002230BC58E700BF70B5C66843690B6455
:1011200004460D4626B10122FFF74EFFFFF766FA8F
:101130000369214602202A469847072807D0082835
:1011400003D120462946FFF71FFFFFF757FA304625
:10115000296CFFF717FF281D00F05CFBC2681AB16D
:10116000CA6B0A6400222FE79CE700BF704700BFEC
:10117000836813B1014601201847704700B5042960
:1011800007D8DFE801F00309060909000BB90F2AA7
:1011900005D902205DF804FB01205DF804FB00EB9B
:1011A000820218465368019A13605DF804FB00BF81
:1011B00000B585B00A4603AB002100930B46FFF74C
:1011C000DDFF039805B05DF804FB00BF00B50429FE
:1011D00007D8DFE801F00309060909000BB90F2A57
:1011E00005D902205DF804FB01205DF804FB01999C
:1011F00000EB82020968516018465DF804FB00BFED
:1012000010B584B004AB0C4643F8042D00210093C4
:1012100022460B46FFF7DAFF04B010BDF0B5D36BE2
:101220001364151D07460E460FCDADF50F7D17ACA7
:101230000FC40FCD0FC40FCD0FC495E80F004FF0B2
:10124000FF3584E80F00169510E016A8FFF7D8FFC9
:10125000314616A8B847694616AA78B9049B0820F3
:101260009847052804460AD0092807D026996846D9
:10127000FFF704FE6A460C210028E6D0092416A8D0
:10128000FFF74CFE20460DF50F7DF0BD2DE9F04F28
:101290000D46C96C8BB00C1D0968079190460894E7
:1012A00000F003091E46002B64D1090203230791B5
:1012B0008DF825608DF824302B6DB9F1020F08BF31
:1012C000AC6B13F0010343D100F00800C2B20392EB
:1012D00001932768002F3DD0022E47D02788B4F80D
:1012E00002A00434AB6C2AF0010B40460F219B4452
:1012F000FFF75EFF834537D827F001039B4458452D
:101300002CBF002001200AF0010A07F0010747EA7C
:101310004A0ABAF1010F43D03AD3BAF1020F1FD1F2
:10132000236823F000420292B9F1000F7BD138B15B
:10133000039A002A00F08380029A002A00F0A68017
:10134000002B7ADB029B03F1010A04EB8A04C0E75D
:1013500000230193022E40DDFFF712FE002842D049
:1013600009200BB0BDE8F08F0020CCE7D4F804A032
:101370000834B7E7022B9FDC0B0CDFB20904022212
:101380008DF8253004EB870407918DF8242093E72E
:10139000B9F1000F02D0002840F0AD80043498E786
:1013A000B9F1000F26D1B0B194E80C00D70F9A1C08
:1013B000D6D005F158020133069200F09280201D2C
:1013C000FFF7D8FD3A46014606AB2846AFF300804A
:1013D000002840F0B58008347BE7404607A900F0BC
:1013E0001BFB0028BCD1019B002B59D108200BB05E
:1013F000BDE8F08F40460D212F6AFFF7D9FE8742E6
:10140000E9D1AB6A9C42E6D12046FFF7DBFC0F2115
:1014100002464046FFF7F4FE40462A460021FFF709
:10142000EFFE07209DE740460D212F6AFFF7C0FE23
:10143000874245D02368002B84DA043482E7029B7C
:1014400023B305F15803059604F1040A039FDDF860
:1014500008B0CDF810901E4602E0D9454F4615D091
:1014600050460696FFF786FD0022014606AB284649
:10147000AFF3008007F101090AF1040A0028ECD05B
:10148000029BDDF81090059E9F42D3D140460D216E
:10149000FFF78EFE069B2862AC626B62062060E757
:1014A0000F214046FFF784FE0E2102464046FFF71B
:1014B000A7FE40460F21294AFFF7A2FE072050E76A
:1014C000AB6A9C42B6D104220027A3180299A962F4
:1014D000EF622A636B632368BB421FDB0123019326
:1014E00030E740460D21FFF763FE2862069B6B62E2
:1014F000AC62062035E72046FFF764FC043406465C
:10150000AC632846AFF3008000283FF429AF404683
:1015100032460F21FFF774FE072022E7084601300C
:1015200004EB8000FFF74EFC0F2102464046FFF718
:1015300067FE404639462A46FFF762FE072010E75D
:1015400007460D214046FFF733FE022F2862CDD11A
:101550002B46069A43F82C2F6B62C9E70000000067
:10156000002393E6012391E602238FE6F0B50546BA
:10157000C5B004290CD8DFE801F056030B300E008B
:10158000012B4FEA124496B265D0052B00F08480FF
:10159000022045B0F0BD002BFAD1102AF8D82B68F4
:1015A000DC0600F1EB8022AE3046019200F0A4F997
:1015B000A86B019A0023012404FA03F1114203D01D
:1015C000016846F8231004300133042BF4D1A863DA
:1015D000304600F087F90020DBE7032BD8D1140C4C
:1015E00097B23B19102BD3D82B681E0700F1E68069
:1015F00022AE30467F0000F053F906EBC4027B1E9A
:10160000AC6B57B1043A214651F8040B42F8040F71
:10161000013B581CF8D104EB87043046AC6300F062
:101620001DF90020B5E7002BB2D1AC6B97B2281D95
:10163000012606FA03F1394203F1010302D02168C1
:1016400001600434102B00F10400F2D112F40050B8
:1016500020D1AC639DE73219102A99D80F2C97D866
:101660002968C8074FF0000755D422A8019300F05D
:10167000E1F8019B19E008463746012B00F09880FD
:101680000F2CA86302D822A800F0D8F817B102A83E
:1016900000F0DCF800207CE73719202F3FF678AF08
:1016A0000F2C30D93746002E45D1A96B3246002E7B
:1016B000E1D0002744A84FEA420C00EBC4000CF133
:1016C000FF328C388E465EF8046B40F8046F013AA6
:1016D000561CF8D101EB8C00002FCED0102C2246E6
:1016E00044A938BF102201EBC202A2F5C472014620
:1016F0007800043A01EB800051F8046B42F8046F63
:101700008142F9D1B9E7102F42D92A68D007A7F151
:101710001007114610D521F00102052B2A60019314
:1017200028465BD021F0030140F8481B00F082F806
:10173000019B002F4AD02A6851075BD4012B63D04C
:101740000F2C04D822A8019300F07CF8019B002FF5
:10175000ABD002A8019300F07DF8019BA96BC4F106
:101760001002002AA6DC102C224644A838BF102202
:1017700000EBC202A2F5C4727800BAE723F01003AE
:101780002B6005F5E870019200F0B6F8019A0AE7BF
:101790002968C8071DD521F00102284642F002023F
:1017A00040F8482B0193002700F04CF8019BC9E753
:1017B0000430A86322A800F039F86BE723F008038F
:1017C0002B6005F5A87000F06BF811E7012B3FF4D2
:1017D0004CAF0F2C98BF0027B4D966E742F0020245
:1017E00040F8482B00F02EF8019B002FAAD02A6861
:1017F0005107A5D5284622F0040240F8D02B0193CA
:1018000000F028F8019B99E722A8019300F012F854
:10181000019BA3E700F1340191E838009C46A646FD
:101820004CF8045D90E8FF0FE54600BD90EC210BFD
:10183000704700BF80EC210B704700BF90EC200B7D
:10184000704700BF80EC200B704700BFD0EC200B2E
:10185000704700BFC0EC200B704700BFF0EC0201E6
:10186000F0EC0211F0EC0221F0EC0231F0EC02415C
:10187000F0EC0251F0EC0261F0EC0271F0EC02814C
:10188000F0EC0291F0EC02A1F0EC02B1F0EC02C13C
:10189000F0EC02D1F0EC02E1F0EC02F1704700BF95
:1018A000E0EC0201E0EC0211E0EC0221E0EC02319C
:1018B000E0EC0241E0EC0251E0EC0261E0EC02718C
:1018C000E0EC0281E0EC0291E0EC02A1E0EC02B17C
:1018D000E0EC02C1E0EC02D1E0EC02E1E0EC02F16C
:1018E000704700BFB0FC0181B0FC0191B0FC01A1C8
:1018F000B0FC01B1704700BFA0FC0181A0FC0191C8
:10190000A0FC01A1A0FC01B1704700BFEC4600B5EE
:101910002DE900502DE9FF1F4FF000032DE90C00C9
:1019200001A9FFF7BFFBDDF840E012B0704700BF30
:10193000EC4600B52DE900502DE9FF1F4FF00003E4
:101940002DE90C0001A9FFF7E7FBDDF840E012B03C
:10195000704700BFEC4600B52DE900502DE9FF1F90
:101960004FF000032DE90C0001A9FFF7F7FBDDF8AC
:1019700040E012B0704700BFEC4600B52DE90050C2
:101980002DE9FF1F4FF000032DE90C0001ABFFF71D
:10199000B9FBDDF840E012B0704700BFEC4600B57F
:1019A0002DE900502DE9FF1F4FF000032DE90C0039
:1019B00001AAFFF733FCDDF840E012B0704700BF2A
:1019C000037A1BB9437A43B9B02070475A1E0368A3
:1019D00002721A020260180E70474268013B10B48E
:1019E000437213680321141D01721A0244600260DD
:1019F0005DF8044B180E704700B585B003AB0021AD
:101A000000930C220B46FFF7B9FB039805B05DF875
:101A100004FB00BFF0E700BF2DE9F043064685B0A8
:101A20000D464FF000082846FFF7CAFFB0280446CD
:101A300000F0B58020F07F0111F0FF0120D000F010
:101A4000F003802B7AD0902B36D0A02B49D0B02B2E
:101A50005CD0C02B00F0898000F0F803D02B0BD1B4
:101A600000F00702013242F4002230460121052332
:101A7000FFF77CFD0028D6D0092005B0BDE8F08333
:101A80000DF10C090B468700CDF8009030460D2271
:101A9000FFF774FBFFB2039BCDF80090043760069C
:101AA0004FF000014CBFDF1BFF1830460B460D22E4
:101AB0000397FFF78BFBB6E700F00D030D2BDBD090
:101AC00003AF002100F00F020B4600973046FFF7EE
:101AD00055FB002100970B4630460D22FFF776FBA1
:101AE000A1E7C34303F007034FF47F621A410107E4
:101AF00002F47F624FF0000148BF42F480420B467F
:101B00003046FFF733FD0028B6D18CE7B1284CD022
:101B1000B2285DD0B32800F08A8000F0FC03B42B1B
:101B2000AAD000F007020132012142F400220B4644
:101B30003046FFF71BFD00289ED174E72846FFF7CB
:101B40003FFF24022043B0F5004F95D0040100214F
:101B5000A2B20B463046FFF709FD00288CD114F4E1
:101B6000004F18BF4FF001085DE7C62872D0C728A4
:101B70007AD000F0F803C02B00F08980C82800F06C
:101B8000A580C9287FF478AF2846FFF719FF00F039
:101B90000F02013200F0F00042EA003265E7B8F1CE
:101BA000000F00F08280002067E72846FFF708FF5B
:101BB000024600283FF460AF10F0F0017FF45CAF04
:101BC00030460B46FFF7D2FC00287FF455AF2AE7DA
:101BD00000210DF10C090D220B46CDF80090304686
:101BE000FFF7CCFA2846FFF7EBFE02064FF002049F
:101BF0000CD5039B00F07F00A040034428460393CC
:101C0000FFF7DEFE030604F10704F2D4039BCDF8D0
:101C1000009000F07F00A04003F5017300211C1824
:101C20000D220B4630460394FFF7D0FAFBE6284618
:101C3000FFF7C6FE00F00F02013200F0F0000121B4
:101C400042EA00320B463046FFF790FC00287FF452
:101C500013AFE8E62846FFF7B3FE00F00F020132AB
:101C600000F0F0000321EBE72846FFF7A9FE02464B
:101C700000283FF401AF10F0F0037FF4FDAE3046D2
:101C80000421FFF773FC00287FF4F6AECBE600F0EA
:101C90000F020132032142F420220B463046FFF7A7
:101CA00065FC00287FF4E8AEBDE603AC41460E2299
:101CB000434600943046FFF761FA009430464146AF
:101CC0000F224346FFF782FA4046D6E62846FFF742
:101CD00077FE00F0F00200F00F031032013343EA08
:101CE0000232C2E610B5C36C84B05A6803208DF886
:101CF0000C00DC798DF80D4012020833084601A96A
:101D000001920293FFF788FE04B010BD08B5FFF7FB
:101D100081FE806C08BD00BF08B5FFF77BFEC36C79
:101D2000D87903EB8000083008BD00BF08B5FEF786
:101D300065FC00BF08B5FEF761FC00BF844641EAC0
:101D4000000313F003036DD1403A41D351F8043B33
:101D500040F8043B51F8043B40F8043B51F8043B85
:101D600040F8043B51F8043B40F8043B51F8043B75
:101D700040F8043B51F8043B40F8043B51F8043B65
:101D800040F8043B51F8043B40F8043B51F8043B55
:101D900040F8043B51F8043B40F8043B51F8043B45
:101DA00040F8043B51F8043B40F8043B51F8043B35
:101DB00040F8043B51F8043B40F8043B51F8043B25
:101DC00040F8043B51F8043B40F8043B403ABDD294
:101DD000303211D351F8043B40F8043B51F8043B36
:101DE00040F8043B51F8043B40F8043B51F8043BF5
:101DF00040F8043B103AEDD20C3205D351F8043BC5
:101E000040F8043B043AF9D2043208D0D2071CBF90
:101E100011F8013B00F8013B01D30B8803806046B9
:101E2000704700BF082A13D38B078DD010F003032F
:101E30008AD0C3F10403D21ADB071CBF11F8013B9F
:101E400000F8013B80D331F8023B20F8023B7BE7EE
:101E5000043AD9D3013A11F8013B00F8013BF9D219
:101E60000B7803704B7843708B78837060467047B3
:101E700070B4840746D0541E002A41D0CDB2034628
:101E800002E0621EE4B3144603F8015B9A07F8D13E
:101E9000032C2ED9CDB245EA05250F2C45EA054580
:101EA00019D903F110022646103E0F2E42F8105C9D
:101EB00042F80C5C42F8085C42F8045C02F1100243
:101EC000F2D8A4F1100222F00F0204F00F04103235
:101ED000032C13440DD91E462246043A032A46F821
:101EE000045BFAD8221F22F003020432134404F0E8
:101EF00003042CB1C9B21C4403F8011BA342FBD15B
:101F000070BC704714460346C2E700BF10B40C4BC8
:101F10000C4C19680C4AD1F8A830D1F8AC0004FB7D
:101F200003F402FB0040A3FB02230344013243F10C
:101F30000003C1E92A2323F000405DF8044B7047F9
:101F4000400400202DF451582D7F954C024B13B1C5
:101F5000024800F005B87047000000006D1F00083F
:101F6000014600200246034600F016B838B5084B7B
:101F7000084DED1AAC1018BFED1805D0013C55F80E
:101F8000043D9847002CF9D1BDE8384000F05CB81A
:101F900050040020540400202DE9F047254C25680A
:101FA000D5F848410646884692469946CCB36068C3
:101FB0001F2818DC431C7EB104EB80050121C5F805
:101FC00088A0D4F8887101FA00F21743022EC4F8F1
:101FD0008871C5F808911ED00230636044F82080F3
:101FE0000020BDE8F087144B03B34FF4C870AFF383
:101FF00000800446D0B1D5F84831002780E8880039
:10200000C5F8484138460123C4F88871C4F88C717A
:10201000002EE1D0D0E7D4F88C110A43C4F88C210B
:10202000DAE705F5A674C5F84841C0E74FF0FF3080
:10203000BDE8F0875820000800000000F8B500BF98
:10204000F8BC08BC9E467047F8B500BFF8BC08BC99
:0C2050009E46704743000000180000206E
:10205C0008B10181B0B000840000000008B101811A
:08206C00B0B000840000000088
:10207400BCE1FF7F0084028020E2FF7F01000000BA
:1020840080E5FF7FB0AD04808CE6FF7F0100000097
:1020940098E6FF7FAB08B18038E7FF7FB0AF1280CE
:1020A400CCE9FF7F01000000D0EDFF7FB0A90280E2
:1020B40068EEFF7FB0B0A880B8EEFF7F010000009B
:1020C400C4EEFF7FB0B0AA80FCEEFF7FAE71B28099
:1020D400CCEFFF7F01000000C8EFFF7FAB3F3880EB
:1020E40020F0FF7F010000002CF0FF7FB0B0AA8039
:1020F40068F0FF7F0100000020F1FF7FAB0EB2808B
:1021040088F1FF7FB0AF0A8054F4FF7F0100000024
:1021140058F4FF7FAB3F0480F8F6FF7F0100000016
:10212400D4F8FF7F00840480E8F8FF7F01000000FA
:10213400E4F8FF7FB0AD0480A8FBFF7FB0A8038064
:10214400C8FBFF7F14FFFF7FCCFBFF7F18FFFF7FDF
:08215400D8FBFF7F0100000031
:10215C00000000000000000001020304060708094B
:10216C00007A030A000000000000000004030020B5
:10217C006C030020D40300200000000000000000CD
:10218C000000000000000000000000000000000043
:10219C0000000000000000000000000054200008B7
:1021AC000000000000000000000000000000000023
:1021BC000000000000000000000000000000000013
:1021CC000000000000000000000000000000000003
:1021DC0000000000000000000000000000000000F3
:1021EC0000000000000000000000000000000000E3
:1021FC0000000000000000000000000000000000D3
:10220C0000000000000000000000000000000000C2
:10221C0001000000000000000E33CDAB34126DE65F
:10222C00ECDE05000B0000000000000000000000C8
:10223C000000000000000000000000000000000092
:10224C000000000000000000000000000000000082
:10225C000000000000000000000000000000000072
:10226C000000000000000000000000000000000062
:10259C00180000204D1F0008AD010008710A00084A
:0825AC00890100080000000095
:0400000508000000EF
:00000001FF
